{
  "contractName": "Purchase",
  "abi": [
    {
      "constant": true,
      "inputs": [
        {
          "name": "videoId",
          "type": "uint256"
        }
      ],
      "name": "checkScore",
      "outputs": [
        {
          "name": "",
          "type": "uint256"
        }
      ],
      "payable": false,
      "stateMutability": "view",
      "type": "function"
    },
    {
      "constant": true,
      "inputs": [],
      "name": "allVideos",
      "outputs": [
        {
          "name": "",
          "type": "address"
        }
      ],
      "payable": false,
      "stateMutability": "view",
      "type": "function"
    },
    {
      "constant": true,
      "inputs": [
        {
          "name": "",
          "type": "uint256"
        }
      ],
      "name": "numBuyers",
      "outputs": [
        {
          "name": "",
          "type": "uint256"
        }
      ],
      "payable": false,
      "stateMutability": "view",
      "type": "function"
    },
    {
      "constant": true,
      "inputs": [
        {
          "name": "",
          "type": "uint256"
        }
      ],
      "name": "urls",
      "outputs": [
        {
          "name": "",
          "type": "string"
        }
      ],
      "payable": false,
      "stateMutability": "view",
      "type": "function"
    },
    {
      "constant": true,
      "inputs": [],
      "name": "allVotes",
      "outputs": [
        {
          "name": "",
          "type": "address"
        }
      ],
      "payable": false,
      "stateMutability": "view",
      "type": "function"
    },
    {
      "constant": false,
      "inputs": [
        {
          "name": "videoId",
          "type": "uint256"
        }
      ],
      "name": "approveVideo",
      "outputs": [
        {
          "name": "",
          "type": "bool"
        }
      ],
      "payable": false,
      "stateMutability": "nonpayable",
      "type": "function"
    },
    {
      "constant": false,
      "inputs": [
        {
          "name": "_price",
          "type": "uint256"
        },
        {
          "name": "_name",
          "type": "string"
        },
        {
          "name": "_url",
          "type": "string"
        }
      ],
      "name": "addVideo",
      "outputs": [
        {
          "name": "",
          "type": "uint256"
        }
      ],
      "payable": false,
      "stateMutability": "nonpayable",
      "type": "function"
    },
    {
      "constant": false,
      "inputs": [
        {
          "name": "videoId",
          "type": "uint256"
        }
      ],
      "name": "buy",
      "outputs": [
        {
          "name": "",
          "type": "string"
        }
      ],
      "payable": true,
      "stateMutability": "payable",
      "type": "function"
    },
    {
      "constant": true,
      "inputs": [
        {
          "name": "videoId",
          "type": "uint256"
        },
        {
          "name": "buyer",
          "type": "address"
        }
      ],
      "name": "hasPurchased",
      "outputs": [
        {
          "name": "",
          "type": "bool"
        }
      ],
      "payable": false,
      "stateMutability": "view",
      "type": "function"
    },
    {
      "constant": true,
      "inputs": [
        {
          "name": "videoId",
          "type": "uint256"
        }
      ],
      "name": "getPrice",
      "outputs": [
        {
          "name": "",
          "type": "uint256"
        }
      ],
      "payable": false,
      "stateMutability": "view",
      "type": "function"
    },
    {
      "constant": true,
      "inputs": [
        {
          "name": "",
          "type": "uint256"
        },
        {
          "name": "",
          "type": "address"
        }
      ],
      "name": "allBuyers",
      "outputs": [
        {
          "name": "",
          "type": "bool"
        }
      ],
      "payable": false,
      "stateMutability": "view",
      "type": "function"
    },
    {
      "inputs": [],
      "payable": false,
      "stateMutability": "nonpayable",
      "type": "constructor"
    }
  ],
  "bytecode": "0x606060405234156200001057600080fd5b6200001a6200038e565b604051809103906000f08015156200003157600080fd5b600360006101000a81548173ffffffffffffffffffffffffffffffffffffffff021916908373ffffffffffffffffffffffffffffffffffffffff1602179055506200007b6200039f565b604051809103906000f08015156200009257600080fd5b600460006101000a81548173ffffffffffffffffffffffffffffffffffffffff021916908373ffffffffffffffffffffffffffffffffffffffff1602179055506200015e60006040805190810160405280600d81526020017f44657370696361626c655f4d65000000000000000000000000000000000000008152506040805190810160405280601881526020017f68747470733a2f2f64657370696361626c654d652e636f6d0000000000000000815250620001f26401000000000262000806176401000000009004565b50620001eb60006040805190810160405280600c81526020017f576f6e6465725f576f6d616e00000000000000000000000000000000000000008152506040805190810160405280601781526020017f68747470733a2f2f776f6e646572576f6d616e2e636f6d000000000000000000815250620001f26401000000000262000806176401000000009004565b506200053a565b6000600180548060010182816200020a9190620003b0565b91600052602060002090016000849091909150908051906020019062000232929190620003df565b5050600080548060010182816200024a919062000466565b916000526020600020900160008090919091505550600460009054906101000a900473ffffffffffffffffffffffffffffffffffffffff1673ffffffffffffffffffffffffffffffffffffffff166357c4699c85856000604051602001526040518363ffffffff167c01000000000000000000000000000000000000000000000000000000000281526004018083815260200180602001828103825283818151815260200191508051906020019080838360005b838110156200031b578082015181840152602081019050620002fe565b50505050905090810190601f168015620003495780820380516001836020036101000a031916815260200191505b509350505050602060405180830381600087803b15156200036957600080fd5b6102c65a03f115156200037b57600080fd5b5050506040518051905090509392505050565b604051610453806200149283390190565b6040516109ed80620018e583390190565b815481835581811511620003da57818360005260206000209182019101620003d9919062000495565b5b505050565b828054600181600116156101000203166002900490600052602060002090601f016020900481019282601f106200042257805160ff191683800117855562000453565b8280016001018555821562000453579182015b828111156200045257825182559160200191906001019062000435565b5b509050620004629190620004c6565b5090565b81548183558181151162000490578183600052602060002091820191016200048f9190620004c6565b5b505050565b620004c391905b80821115620004bf5760008181620004b59190620004ee565b506001016200049c565b5090565b90565b620004eb91905b80821115620004e7576000816000905550600101620004cd565b5090565b90565b50805460018160011615610100020316600290046000825580601f1062000516575062000537565b601f016020900490600052602060002090810190620005369190620004c6565b5b50565b610f48806200054a6000396000f3006060604052600436106100af576000357c0100000000000000000000000000000000000000000000000000000000900463ffffffff168063105427d2146100b45780631470980e146100eb578063789c49a914610140578063796676be14610177578063804a542e14610213578063af9d0d2c14610268578063d4de248d146102a3578063d96a094a14610360578063dc9da2f8146103f1578063e75722301461044b578063ea4e5c1a14610482575b600080fd5b34156100bf57600080fd5b6100d560048080359060200190919050506104dc565b6040518082815260200191505060405180910390f35b34156100f657600080fd5b6100fe6105c5565b604051808273ffffffffffffffffffffffffffffffffffffffff1673ffffffffffffffffffffffffffffffffffffffff16815260200191505060405180910390f35b341561014b57600080fd5b61016160048080359060200190919050506105eb565b6040518082815260200191505060405180910390f35b341561018257600080fd5b610198600480803590602001909190505061060f565b6040518080602001828103825283818151815260200191508051906020019080838360005b838110156101d85780820151818401526020810190506101bd565b50505050905090810190601f1680156102055780820380516001836020036101000a031916815260200191505b509250505060405180910390f35b341561021e57600080fd5b6102266106cb565b604051808273ffffffffffffffffffffffffffffffffffffffff1673ffffffffffffffffffffffffffffffffffffffff16815260200191505060405180910390f35b341561027357600080fd5b61028960048080359060200190919050506106f1565b604051808215151515815260200191505060405180910390f35b34156102ae57600080fd5b61034a600480803590602001909190803590602001908201803590602001908080601f0160208091040260200160405190810160405280939291908181526020018383808284378201915050505050509190803590602001908201803590602001908080601f01602080910402602001604051908101604052809392919081815260200183838082843782019150505050505091905050610806565b6040518082815260200191505060405180910390f35b6103766004808035906020019091905050610997565b6040518080602001828103825283818151815260200191508051906020019080838360005b838110156103b657808201518184015260208101905061039b565b50505050905090810190601f1680156103e35780820380516001836020036101000a031916815260200191505b509250505060405180910390f35b34156103fc57600080fd5b610431600480803590602001909190803573ffffffffffffffffffffffffffffffffffffffff16906020019091905050610c3e565b604051808215151515815260200191505060405180910390f35b341561045657600080fd5b61046c6004808035906020019091905050610ca6565b6040518082815260200191505060405180910390f35b341561048d57600080fd5b6104c2600480803590602001909190803573ffffffffffffffffffffffffffffffffffffffff16906020019091905050610d68565b604051808215151515815260200191505060405180910390f35b6000806000838154811015156104ee57fe5b906000526020600020900154141561050957600090506105c0565b600360009054906101000a900473ffffffffffffffffffffffffffffffffffffffff1673ffffffffffffffffffffffffffffffffffffffff16638c4cde81836000604051602001526040518263ffffffff167c010000000000000000000000000000000000000000000000000000000002815260040180828152602001915050602060405180830381600087803b15156105a257600080fd5b6102c65a03f115156105b357600080fd5b5050506040518051905090505b919050565b600460009054906101000a900473ffffffffffffffffffffffffffffffffffffffff1681565b6000818154811015156105fa57fe5b90600052602060002090016000915090505481565b60018181548110151561061e57fe5b90600052602060002090016000915090508054600181600116156101000203166002900480601f0160208091040260200160405190810160405280929190818152602001828054600181600116156101000203166002900480156106c35780601f10610698576101008083540402835291602001916106c3565b820191906000526020600020905b8154815290600101906020018083116106a657829003601f168201915b505050505081565b600360009054906101000a900473ffffffffffffffffffffffffffffffffffffffff1681565b60006106fd8233610c3e565b15806107ee5750600360009054906101000a900473ffffffffffffffffffffffffffffffffffffffff1673ffffffffffffffffffffffffffffffffffffffff166302d947ef83336000604051602001526040518363ffffffff167c0100000000000000000000000000000000000000000000000000000000028152600401808381526020018273ffffffffffffffffffffffffffffffffffffffff1673ffffffffffffffffffffffffffffffffffffffff16815260200192505050602060405180830381600087803b15156107d157600080fd5b6102c65a03f115156107e257600080fd5b50505060405180519050155b156107fc5760009050610801565b600190505b919050565b60006001805480600101828161081c9190610d97565b916000526020600020900160008490919091509080519060200190610842929190610dc3565b5050600080548060010182816108589190610e43565b916000526020600020900160008090919091505550600460009054906101000a900473ffffffffffffffffffffffffffffffffffffffff1673ffffffffffffffffffffffffffffffffffffffff166357c4699c85856000604051602001526040518363ffffffff167c01000000000000000000000000000000000000000000000000000000000281526004018083815260200180602001828103825283818151815260200191508051906020019080838360005b8381101561092757808201518184015260208101905061090c565b50505050905090810190601f1680156109545780820380516001836020036101000a031916815260200191505b509350505050602060405180830381600087803b151561097357600080fd5b6102c65a03f1151561098457600080fd5b5050506040518051905090509392505050565b61099f610e6f565b60008210806109b2575060008054905082115b80610a6f575034600460009054906101000a900473ffffffffffffffffffffffffffffffffffffffff1673ffffffffffffffffffffffffffffffffffffffff1663e7572230846000604051602001526040518263ffffffff167c010000000000000000000000000000000000000000000000000000000002815260040180828152602001915050602060405180830381600087803b1515610a5257600080fd5b6102c65a03f11515610a6357600080fd5b50505060405180519050115b15610af1573373ffffffffffffffffffffffffffffffffffffffff166108fc349081150290604051600060405180830381858888f193505050501515610ab457600080fd5b6040805190810160405280601081526020017f5075726368617365206661696c65642e000000000000000000000000000000008152509050610c39565b6001600083815481101515610b0257fe5b90600052602060002090016000828254019250508190555060016002600084815260200190815260200160002060003373ffffffffffffffffffffffffffffffffffffffff1673ffffffffffffffffffffffffffffffffffffffff16815260200190815260200160002060006101000a81548160ff021916908315150217905550600182815481101515610b9257fe5b90600052602060002090018054600181600116156101000203166002900480601f016020809104026020016040519081016040528092919081815260200182805460018160011615610100020316600290048015610c315780601f10610c0657610100808354040283529160200191610c31565b820191906000526020600020905b815481529060010190602001808311610c1457829003601f168201915b505050505090505b919050565b60006002600084815260200190815260200160002060008373ffffffffffffffffffffffffffffffffffffffff1673ffffffffffffffffffffffffffffffffffffffff16815260200190815260200160002060009054906101000a900460ff16905092915050565b600080600460009054906101000a900473ffffffffffffffffffffffffffffffffffffffff1673ffffffffffffffffffffffffffffffffffffffff1663e7572230846000604051602001526040518263ffffffff167c010000000000000000000000000000000000000000000000000000000002815260040180828152602001915050602060405180830381600087803b1515610d4257600080fd5b6102c65a03f11515610d5357600080fd5b50505060405180519050905080915050919050565b60026020528160005260406000206020528060005260406000206000915091509054906101000a900460ff1681565b815481835581811511610dbe57818360005260206000209182019101610dbd9190610e83565b5b505050565b828054600181600116156101000203166002900490600052602060002090601f016020900481019282601f10610e0457805160ff1916838001178555610e32565b82800160010185558215610e32579182015b82811115610e31578251825591602001919060010190610e16565b5b509050610e3f9190610eaf565b5090565b815481835581811511610e6a57818360005260206000209182019101610e699190610eaf565b5b505050565b602060405190810160405280600081525090565b610eac91905b80821115610ea85760008181610e9f9190610ed4565b50600101610e89565b5090565b90565b610ed191905b80821115610ecd576000816000905550600101610eb5565b5090565b90565b50805460018160011615610100020316600290046000825580601f10610efa5750610f19565b601f016020900490600052602060002090810190610f189190610eaf565b5b505600a165627a7a7230582008a7c297e56b0858b80b7381c3560b266b488837d1653a7ab1e9d8439d945be000296060604052341561000f57600080fd5b336103e960006101000a81548173ffffffffffffffffffffffffffffffffffffffff021916908373ffffffffffffffffffffffffffffffffffffffff1602179055506103f3806100606000396000f30060606040526004361061006d576000357c0100000000000000000000000000000000000000000000000000000000900463ffffffff16806302d947ef146100725780638c4cde81146100cc5780638da5cb5b1461010357806397087ce6146101585780639e3190631461018f575b600080fd5b341561007d57600080fd5b6100b2600480803590602001909190803573ffffffffffffffffffffffffffffffffffffffff169060200190919050506101e5565b604051808215151515815260200191505060405180910390f35b34156100d757600080fd5b6100ed6004808035906020019091905050610345565b6040518082815260200191505060405180910390f35b341561010e57600080fd5b61011661035f565b604051808273ffffffffffffffffffffffffffffffffffffffff1673ffffffffffffffffffffffffffffffffffffffff16815260200191505060405180910390f35b341561016357600080fd5b6101796004808035906020019091905050610386565b6040518082815260200191505060405180910390f35b341561019a57600080fd5b6101cf600480803590602001909190803573ffffffffffffffffffffffffffffffffffffffff169060200190919050506103a1565b6040518082815260200191505060405180910390f35b6000808310806101f657506103e883115b80610252575060016103e8600085815260200190815260200160002060003373ffffffffffffffffffffffffffffffffffffffff1673ffffffffffffffffffffffffffffffffffffffff16815260200190815260200160002054145b15610260576000905061033f565b60016000846103e88110151561027257fe5b016000828254019250508190555060016103e8600085815260200190815260200160002060003373ffffffffffffffffffffffffffffffffffffffff1673ffffffffffffffffffffffffffffffffffffffff168152602001908152602001600020819055507f377b6121f9ddb84a6da01057410e10aef4c11de0e31d76b5968293b73c0cc02d82604051808273ffffffffffffffffffffffffffffffffffffffff1673ffffffffffffffffffffffffffffffffffffffff16815260200191505060405180910390a1600190505b92915050565b600080826103e88110151561035657fe5b01549050919050565b6103e960009054906101000a900473ffffffffffffffffffffffffffffffffffffffff1681565b6000816103e88110151561039657fe5b016000915090505481565b6103e86020528160005260406000206020528060005260406000206000915091505054815600a165627a7a723058209fbd96bda0c4dfed6a01924b51f8eb41ea9438b31e49a272a8d2bacaca8bffe700296060604052341561000f57600080fd5b60006001819055506109c7806100266000396000f300606060405260043610610098576000357c0100000000000000000000000000000000000000000000000000000000900463ffffffff168062ad800c1461009d57806306ce111a1461013957806357c4699c146101705780636b8ff574146101ea57806379d82e7114610286578063a123c33e146102af578063a7ad7c1514610312578063e327a6af1461033b578063e757223014610395575b600080fd5b34156100a857600080fd5b6100be60048080359060200190919050506103cc565b6040518080602001828103825283818151815260200191508051906020019080838360005b838110156100fe5780820151818401526020810190506100e3565b50505050905090810190601f16801561012b5780820380516001836020036101000a031916815260200191505b509250505060405180910390f35b341561014457600080fd5b61015a6004808035906020019091905050610488565b6040518082815260200191505060405180910390f35b341561017b57600080fd5b6101d4600480803590602001909190803590602001908201803590602001908080601f016020809104026020016040519081016040528093929190818152602001838380828437820191505050505050919050506104ac565b6040518082815260200191505060405180910390f35b34156101f557600080fd5b61020b6004808035906020019091905050610642565b6040518080602001828103825283818151815260200191508051906020019080838360005b8381101561024b578082015181840152602081019050610230565b50505050905090810190601f1680156102785780820380516001836020036101000a031916815260200191505b509250505060405180910390f35b341561029157600080fd5b610299610704565b6040518082815260200191505060405180910390f35b34156102ba57600080fd5b6102d0600480803590602001909190505061070a565b604051808273ffffffffffffffffffffffffffffffffffffffff1673ffffffffffffffffffffffffffffffffffffffff16815260200191505060405180910390f35b341561031d57600080fd5b610325610749565b6040518082815260200191505060405180910390f35b341561034657600080fd5b61037b600480803573ffffffffffffffffffffffffffffffffffffffff16906020019091908035906020019091905050610753565b604051808215151515815260200191505060405180910390f35b34156103a057600080fd5b6103b660048080359060200190919050506107c6565b6040518082815260200191505060405180910390f35b6003818154811015156103db57fe5b90600052602060002090016000915090508054600181600116156101000203166002900480601f0160208091040260200160405190810160405280929190818152602001828054600181600116156101000203166002900480156104805780601f1061045557610100808354040283529160200191610480565b820191906000526020600020905b81548152906001019060200180831161046357829003601f168201915b505050505081565b60028181548110151561049757fe5b90600052602060002090016000915090505481565b60008080548060010182816104c191906107ea565b9160005260206000209001600033909190916101000a81548173ffffffffffffffffffffffffffffffffffffffff021916908373ffffffffffffffffffffffffffffffffffffffff16021790555050600280548060010182816105249190610816565b9160005260206000209001600085909190915055506003805480600101828161054d9190610842565b91600052602060002090016000849091909150908051906020019061057392919061086e565b5050600180600082825401925050819055507fdd1c6d84160fa3d19615fd4196604266ccaaa3018e781625dad3f5e279284bd1600180540384846040518084815260200183815260200180602001828103825283818151815260200191508051906020019080838360005b838110156105f95780820151818401526020810190506105de565b50505050905090810190601f1680156106265780820380516001836020036101000a031916815260200191505b5094505050505060405180910390a16001805403905092915050565b61064a6108ee565b60038281548110151561065957fe5b90600052602060002090018054600181600116156101000203166002900480601f0160208091040260200160405190810160405280929190818152602001828054600181600116156101000203166002900480156106f85780601f106106cd576101008083540402835291602001916106f8565b820191906000526020600020905b8154815290600101906020018083116106db57829003601f168201915b50505050509050919050565b60015481565b60008181548110151561071957fe5b90600052602060002090016000915054906101000a900473ffffffffffffffffffffffffffffffffffffffff1681565b6000600154905090565b60008273ffffffffffffffffffffffffffffffffffffffff1660008381548110151561077b57fe5b906000526020600020900160009054906101000a900473ffffffffffffffffffffffffffffffffffffffff1673ffffffffffffffffffffffffffffffffffffffff1614905092915050565b60006002828154811015156107d757fe5b9060005260206000209001549050919050565b815481835581811511610811578183600052602060002091820191016108109190610902565b5b505050565b81548183558181151161083d5781836000526020600020918201910161083c9190610902565b5b505050565b815481835581811511610869578183600052602060002091820191016108689190610927565b5b505050565b828054600181600116156101000203166002900490600052602060002090601f016020900481019282601f106108af57805160ff19168380011785556108dd565b828001600101855582156108dd579182015b828111156108dc5782518255916020019190600101906108c1565b5b5090506108ea9190610902565b5090565b602060405190810160405280600081525090565b61092491905b80821115610920576000816000905550600101610908565b5090565b90565b61095091905b8082111561094c57600081816109439190610953565b5060010161092d565b5090565b90565b50805460018160011615610100020316600290046000825580601f106109795750610998565b601f0160209004906000526020600020908101906109979190610902565b5b505600a165627a7a72305820e300f47addcfad19d90ffad13f32d236e9a00197a861f1d0175fecc915b065f10029",
  "source": "pragma solidity ^0.4.4;\n\nimport './Vote.sol';\nimport './Video.sol';\n\ncontract Purchase {\n    uint256[] public numBuyers;\n    string[] public urls;\n    mapping (uint256 => mapping(address => bool)) public allBuyers;\n\n    Vote public allVotes;\n    Video public allVideos;\n\n    function Purchase() public {\n        allVotes = new Vote();\n        allVideos = new Video();\n\n        //initialize the contract with 2 default videos\n        addVideo(0, \"Despicable_Me\", \"https://despicableMe.com\");\n        addVideo(0, \"Wonder_Woman\", \"https://wonderWoman.com\");\n    }\n\n    // Buy a video\n    function buy(uint videoId) payable public returns (string) {\n        if (videoId < 0 || videoId > numBuyers.length || allVideos.getPrice(videoId) > msg.value) {\n            msg.sender.transfer(msg.value);\n            return \"Purchase failed.\";\n        }\n        numBuyers[videoId] += 1;\n        allBuyers[videoId][msg.sender] = true;\n        return urls[videoId];\n    }\n\n    function hasPurchased(uint videoId, address buyer) constant public returns(bool) {\n        return allBuyers[videoId][buyer];\n    }\n\n    function approveVideo(uint videoId) public returns(bool){\n        //voter must bought the video before\n        if (!hasPurchased(videoId, msg.sender) || !allVotes.vote(videoId, msg.sender)) {\n            return false;\n        }\n        return true;\n    }\n\n    function checkScore(uint videoId) constant public returns(uint256) {\n        if (numBuyers[videoId] == 0) {\n            return 0;\n        }\n//        return 100 * allVotes.checkVotes(videoId) / numBuyers[videoId];\n        return allVotes.checkVotes(videoId);\n    }\n\n    function getPrice(uint videoId) constant public returns(uint256) {\n        uint256 price = allVideos.getPrice(videoId);\n        return price;\n    }\n\n    function addVideo(uint _price, string _name, string _url) public returns(uint256) {\n        urls.push(_url);\n        numBuyers.push(0);\n        return allVideos.addVideo(_price, _name);\n    }\n\n//    function retrieveMoney(address owner, uint videoId) public returns(bool) {\n//        uint256 numBuyer = numBuyers[videoId];\n//        if (checkScore(videoId) >= 80 && numBuyer >= allVideos.getPrice(videoId) * 10) {\n//            if (allVideos.isOwner(owner, videoId)) {\n//                owner.transfer(numBuyer * allVideos.getPrice(videoId));\n//                return true;\n//            }\n//        }\n//        return false;\n//    }\n\n}",
  "sourcePath": "/Users/jingxihuang/blockchain/final-project/contracts/Purchase.sol",
  "compiler": {
    "name": "solc",
    "version": "0.4.18+commit.9cf6e910.Emscripten.clang"
  },
  "schemaVersion": "1.0.1",
  "updatedAt": "2017-12-04T07:52:15.788Z"
}