{
  "contractName": "Video",
  "abi": [
    {
      "constant": true,
      "inputs": [
        {
          "name": "",
          "type": "uint256"
        }
      ],
      "name": "name",
      "outputs": [
        {
          "name": "",
          "type": "string"
        }
      ],
      "payable": false,
      "stateMutability": "view",
      "type": "function"
    },
    {
      "constant": true,
      "inputs": [
        {
          "name": "",
          "type": "uint256"
        }
      ],
      "name": "minPrice",
      "outputs": [
        {
          "name": "",
          "type": "uint256"
        }
      ],
      "payable": false,
      "stateMutability": "view",
      "type": "function"
    },
    {
      "constant": false,
      "inputs": [
        {
          "name": "_price",
          "type": "uint256"
        },
        {
          "name": "_name",
          "type": "string"
        }
      ],
      "name": "addVideo",
      "outputs": [
        {
          "name": "",
          "type": "uint256"
        }
      ],
      "payable": false,
      "stateMutability": "nonpayable",
      "type": "function"
    },
    {
      "constant": true,
      "inputs": [
        {
          "name": "videoId",
          "type": "uint256"
        }
      ],
      "name": "getName",
      "outputs": [
        {
          "name": "",
          "type": "string"
        }
      ],
      "payable": false,
      "stateMutability": "view",
      "type": "function"
    },
    {
      "constant": true,
      "inputs": [],
      "name": "numVideo",
      "outputs": [
        {
          "name": "",
          "type": "uint256"
        }
      ],
      "payable": false,
      "stateMutability": "view",
      "type": "function"
    },
    {
      "constant": true,
      "inputs": [
        {
          "name": "",
          "type": "uint256"
        }
      ],
      "name": "owner",
      "outputs": [
        {
          "name": "",
          "type": "address"
        }
      ],
      "payable": false,
      "stateMutability": "view",
      "type": "function"
    },
    {
      "constant": true,
      "inputs": [],
      "name": "getNumVideo",
      "outputs": [
        {
          "name": "",
          "type": "uint256"
        }
      ],
      "payable": false,
      "stateMutability": "view",
      "type": "function"
    },
    {
      "constant": false,
      "inputs": [
        {
          "name": "_owner",
          "type": "address"
        },
        {
          "name": "videoId",
          "type": "uint256"
        }
      ],
      "name": "isOwner",
      "outputs": [
        {
          "name": "",
          "type": "bool"
        }
      ],
      "payable": false,
      "stateMutability": "nonpayable",
      "type": "function"
    },
    {
      "constant": true,
      "inputs": [
        {
          "name": "videoId",
          "type": "uint256"
        }
      ],
      "name": "getPrice",
      "outputs": [
        {
          "name": "",
          "type": "uint256"
        }
      ],
      "payable": false,
      "stateMutability": "view",
      "type": "function"
    },
    {
      "inputs": [],
      "payable": false,
      "stateMutability": "nonpayable",
      "type": "constructor"
    },
    {
      "anonymous": false,
      "inputs": [
        {
          "indexed": false,
          "name": "_videoId",
          "type": "uint256"
        },
        {
          "indexed": false,
          "name": "_price",
          "type": "uint256"
        },
        {
          "indexed": false,
          "name": "_name",
          "type": "string"
        }
      ],
      "name": "addVideoEvent",
      "type": "event"
    }
  ],
  "bytecode": "0x6060604052341561000f57600080fd5b60006001819055506109c7806100266000396000f300606060405260043610610098576000357c0100000000000000000000000000000000000000000000000000000000900463ffffffff168062ad800c1461009d57806306ce111a1461013957806357c4699c146101705780636b8ff574146101ea57806379d82e7114610286578063a123c33e146102af578063a7ad7c1514610312578063e327a6af1461033b578063e757223014610395575b600080fd5b34156100a857600080fd5b6100be60048080359060200190919050506103cc565b6040518080602001828103825283818151815260200191508051906020019080838360005b838110156100fe5780820151818401526020810190506100e3565b50505050905090810190601f16801561012b5780820380516001836020036101000a031916815260200191505b509250505060405180910390f35b341561014457600080fd5b61015a6004808035906020019091905050610488565b6040518082815260200191505060405180910390f35b341561017b57600080fd5b6101d4600480803590602001909190803590602001908201803590602001908080601f016020809104026020016040519081016040528093929190818152602001838380828437820191505050505050919050506104ac565b6040518082815260200191505060405180910390f35b34156101f557600080fd5b61020b6004808035906020019091905050610642565b6040518080602001828103825283818151815260200191508051906020019080838360005b8381101561024b578082015181840152602081019050610230565b50505050905090810190601f1680156102785780820380516001836020036101000a031916815260200191505b509250505060405180910390f35b341561029157600080fd5b610299610704565b6040518082815260200191505060405180910390f35b34156102ba57600080fd5b6102d0600480803590602001909190505061070a565b604051808273ffffffffffffffffffffffffffffffffffffffff1673ffffffffffffffffffffffffffffffffffffffff16815260200191505060405180910390f35b341561031d57600080fd5b610325610749565b6040518082815260200191505060405180910390f35b341561034657600080fd5b61037b600480803573ffffffffffffffffffffffffffffffffffffffff16906020019091908035906020019091905050610753565b604051808215151515815260200191505060405180910390f35b34156103a057600080fd5b6103b660048080359060200190919050506107c6565b6040518082815260200191505060405180910390f35b6003818154811015156103db57fe5b90600052602060002090016000915090508054600181600116156101000203166002900480601f0160208091040260200160405190810160405280929190818152602001828054600181600116156101000203166002900480156104805780601f1061045557610100808354040283529160200191610480565b820191906000526020600020905b81548152906001019060200180831161046357829003601f168201915b505050505081565b60028181548110151561049757fe5b90600052602060002090016000915090505481565b60008080548060010182816104c191906107ea565b9160005260206000209001600033909190916101000a81548173ffffffffffffffffffffffffffffffffffffffff021916908373ffffffffffffffffffffffffffffffffffffffff16021790555050600280548060010182816105249190610816565b9160005260206000209001600085909190915055506003805480600101828161054d9190610842565b91600052602060002090016000849091909150908051906020019061057392919061086e565b5050600180600082825401925050819055507fdd1c6d84160fa3d19615fd4196604266ccaaa3018e781625dad3f5e279284bd1600180540384846040518084815260200183815260200180602001828103825283818151815260200191508051906020019080838360005b838110156105f95780820151818401526020810190506105de565b50505050905090810190601f1680156106265780820380516001836020036101000a031916815260200191505b5094505050505060405180910390a16001805403905092915050565b61064a6108ee565b60038281548110151561065957fe5b90600052602060002090018054600181600116156101000203166002900480601f0160208091040260200160405190810160405280929190818152602001828054600181600116156101000203166002900480156106f85780601f106106cd576101008083540402835291602001916106f8565b820191906000526020600020905b8154815290600101906020018083116106db57829003601f168201915b50505050509050919050565b60015481565b60008181548110151561071957fe5b90600052602060002090016000915054906101000a900473ffffffffffffffffffffffffffffffffffffffff1681565b6000600154905090565b60008273ffffffffffffffffffffffffffffffffffffffff1660008381548110151561077b57fe5b906000526020600020900160009054906101000a900473ffffffffffffffffffffffffffffffffffffffff1673ffffffffffffffffffffffffffffffffffffffff1614905092915050565b60006002828154811015156107d757fe5b9060005260206000209001549050919050565b815481835581811511610811578183600052602060002091820191016108109190610902565b5b505050565b81548183558181151161083d5781836000526020600020918201910161083c9190610902565b5b505050565b815481835581811511610869578183600052602060002091820191016108689190610927565b5b505050565b828054600181600116156101000203166002900490600052602060002090601f016020900481019282601f106108af57805160ff19168380011785556108dd565b828001600101855582156108dd579182015b828111156108dc5782518255916020019190600101906108c1565b5b5090506108ea9190610902565b5090565b602060405190810160405280600081525090565b61092491905b80821115610920576000816000905550600101610908565b5090565b90565b61095091905b8082111561094c57600081816109439190610953565b5060010161092d565b5090565b90565b50805460018160011615610100020316600290046000825580601f106109795750610998565b601f0160209004906000526020600020908101906109979190610902565b5b505600a165627a7a72305820e300f47addcfad19d90ffad13f32d236e9a00197a861f1d0175fecc915b065f10029",
  "source": "pragma solidity ^0.4.4;\n\ncontract Video {\n    address[] public owner;\n    uint256 public numVideo;\n    uint256[] public minPrice;\n    string[] public name;\n\n\n    function Video() public {\n        numVideo = 0;\n    }\n\n    function addVideo(uint _price, string _name) public returns(uint256) {\n        owner.push(msg.sender);\n        minPrice.push(_price);\n        name.push(_name);\n        numVideo += 1;\n\n        addVideoEvent(numVideo-1, _price, _name);\n        return numVideo-1;\n    }\n\n    function getPrice(uint256 videoId) constant public returns(uint256){\n        return minPrice[videoId];\n    }\n\n    function getName(uint256 videoId) constant public returns(string) {\n        return name[videoId];\n    }\n\n    function getNumVideo() constant public returns(uint256) {\n        return numVideo;\n    }\n\n    function isOwner(address _owner, uint videoId) public returns(bool) {\n        return owner[videoId] == _owner;\n    }\n\n\n    event addVideoEvent(uint _videoId, uint _price, string _name);\n\n\n\n\n}",
  "sourcePath": "/Users/jingxihuang/blockchain/final-project/contracts/Video.sol",
  "compiler": {
    "name": "solc",
    "version": "0.4.18+commit.9cf6e910.Emscripten.clang"
  },
  "schemaVersion": "1.0.1",
  "updatedAt": "2017-12-04T07:52:15.792Z"
}