{
  "contractName": "Vote",
  "abi": [
    {
      "constant": false,
      "inputs": [
        {
          "name": "videoId",
          "type": "uint256"
        },
        {
          "name": "voter",
          "type": "address"
        }
      ],
      "name": "vote",
      "outputs": [
        {
          "name": "",
          "type": "bool"
        }
      ],
      "payable": false,
      "stateMutability": "nonpayable",
      "type": "function"
    },
    {
      "constant": true,
      "inputs": [
        {
          "name": "videoId",
          "type": "uint256"
        }
      ],
      "name": "checkVotes",
      "outputs": [
        {
          "name": "",
          "type": "uint256"
        }
      ],
      "payable": false,
      "stateMutability": "view",
      "type": "function"
    },
    {
      "constant": true,
      "inputs": [],
      "name": "owner",
      "outputs": [
        {
          "name": "",
          "type": "address"
        }
      ],
      "payable": false,
      "stateMutability": "view",
      "type": "function"
    },
    {
      "constant": true,
      "inputs": [
        {
          "name": "",
          "type": "uint256"
        }
      ],
      "name": "numVotes",
      "outputs": [
        {
          "name": "",
          "type": "uint256"
        }
      ],
      "payable": false,
      "stateMutability": "view",
      "type": "function"
    },
    {
      "constant": true,
      "inputs": [
        {
          "name": "",
          "type": "uint256"
        },
        {
          "name": "",
          "type": "address"
        }
      ],
      "name": "voters",
      "outputs": [
        {
          "name": "",
          "type": "uint256"
        }
      ],
      "payable": false,
      "stateMutability": "view",
      "type": "function"
    },
    {
      "inputs": [],
      "payable": false,
      "stateMutability": "nonpayable",
      "type": "constructor"
    },
    {
      "anonymous": false,
      "inputs": [
        {
          "indexed": false,
          "name": "_user",
          "type": "address"
        }
      ],
      "name": "voteApprove",
      "type": "event"
    }
  ],
  "bytecode": "0x6060604052341561000f57600080fd5b336103e960006101000a81548173ffffffffffffffffffffffffffffffffffffffff021916908373ffffffffffffffffffffffffffffffffffffffff1602179055506103f3806100606000396000f30060606040526004361061006d576000357c0100000000000000000000000000000000000000000000000000000000900463ffffffff16806302d947ef146100725780638c4cde81146100cc5780638da5cb5b1461010357806397087ce6146101585780639e3190631461018f575b600080fd5b341561007d57600080fd5b6100b2600480803590602001909190803573ffffffffffffffffffffffffffffffffffffffff169060200190919050506101e5565b604051808215151515815260200191505060405180910390f35b34156100d757600080fd5b6100ed6004808035906020019091905050610345565b6040518082815260200191505060405180910390f35b341561010e57600080fd5b61011661035f565b604051808273ffffffffffffffffffffffffffffffffffffffff1673ffffffffffffffffffffffffffffffffffffffff16815260200191505060405180910390f35b341561016357600080fd5b6101796004808035906020019091905050610386565b6040518082815260200191505060405180910390f35b341561019a57600080fd5b6101cf600480803590602001909190803573ffffffffffffffffffffffffffffffffffffffff169060200190919050506103a1565b6040518082815260200191505060405180910390f35b6000808310806101f657506103e883115b80610252575060016103e8600085815260200190815260200160002060008473ffffffffffffffffffffffffffffffffffffffff1673ffffffffffffffffffffffffffffffffffffffff16815260200190815260200160002054145b15610260576000905061033f565b60016000846103e88110151561027257fe5b016000828254019250508190555060016103e8600085815260200190815260200160002060008473ffffffffffffffffffffffffffffffffffffffff1673ffffffffffffffffffffffffffffffffffffffff168152602001908152602001600020819055507f377b6121f9ddb84a6da01057410e10aef4c11de0e31d76b5968293b73c0cc02d82604051808273ffffffffffffffffffffffffffffffffffffffff1673ffffffffffffffffffffffffffffffffffffffff16815260200191505060405180910390a1600190505b92915050565b600080826103e88110151561035657fe5b01549050919050565b6103e960009054906101000a900473ffffffffffffffffffffffffffffffffffffffff1681565b6000816103e88110151561039657fe5b016000915090505481565b6103e86020528160005260406000206020528060005260406000206000915091505054815600a165627a7a72305820e7af607dcf06737504dd54c7870ce154db8730833520fab51a223cfc66ec1dc10029",
  "source": "pragma solidity ^0.4.4;\n\ncontract Vote {\n\n    uint256[1000] public numVotes;\n    mapping (uint256 => mapping(address => uint256)) public voters;\n    address public owner;\n\n    function Vote() public {\n        owner = msg.sender;\n    }\n\n    // Votes agree for a video\n    function vote(uint videoId, address voter) public returns(bool){\n\n        //avoid duplicate votes\n        if (videoId < 0 || videoId > numVotes.length || voters[videoId][voter] == 1) {\n            return false;\n        }\n        numVotes[videoId] += 1;\n        voters[videoId][voter] = 1;\n\n        voteApprove(voter);\n        return true;\n    }\n\n    function checkVotes(uint videoId) constant public returns(uint256) {\n        return numVotes[videoId];\n    }\n\n    event voteApprove(address _user);\n\n}",
  "sourcePath": "/Users/jingxihuang/blockchain/final-project/contracts/Vote.sol",
  "compiler": {
    "name": "solc",
    "version": "0.4.18+commit.9cf6e910.Emscripten.clang"
  },
  "schemaVersion": "1.0.1",
  "updatedAt": "2017-12-04T08:40:26.571Z"
}